{
  "contractName": "baby_bank",
  "abi": [
    {
      "inputs": [],
      "stateMutability": "payable",
      "type": "constructor"
    },
    {
      "inputs": [
        {
          "internalType": "address",
          "name": "",
          "type": "address"
        }
      ],
      "name": "balance",
      "outputs": [
        {
          "internalType": "uint256",
          "name": "",
          "type": "uint256"
        }
      ],
      "stateMutability": "view",
      "type": "function"
    },
    {
      "inputs": [
        {
          "internalType": "address",
          "name": "",
          "type": "address"
        }
      ],
      "name": "user",
      "outputs": [
        {
          "internalType": "bytes32",
          "name": "",
          "type": "bytes32"
        }
      ],
      "stateMutability": "view",
      "type": "function"
    },
    {
      "inputs": [
        {
          "internalType": "address",
          "name": "",
          "type": "address"
        }
      ],
      "name": "withdraw_time",
      "outputs": [
        {
          "internalType": "uint256",
          "name": "",
          "type": "uint256"
        }
      ],
      "stateMutability": "view",
      "type": "function"
    },
    {
      "inputs": [
        {
          "internalType": "string",
          "name": "_n",
          "type": "string"
        }
      ],
      "name": "signup",
      "outputs": [],
      "stateMutability": "nonpayable",
      "type": "function"
    },
    {
      "inputs": [
        {
          "internalType": "uint256",
          "name": "_t",
          "type": "uint256"
        },
        {
          "internalType": "address",
          "name": "_tg",
          "type": "address"
        },
        {
          "internalType": "string",
          "name": "_n",
          "type": "string"
        }
      ],
      "name": "deposit",
      "outputs": [],
      "stateMutability": "payable",
      "type": "function"
    },
    {
      "inputs": [],
      "name": "withdraw",
      "outputs": [],
      "stateMutability": "nonpayable",
      "type": "function"
    }
  ],
  "bytecode": "0x60806040526107e2806100136000396000f3fe6080604052600436106100555760003560e01c806330f3795c1461005a5780633ccfd60b146100bf578063519c6377146100d657806381e7e20e1461015c578063d53d5885146101c1578063e3d670d714610264575b600080fd5b34801561006657600080fd5b506100a96004803603602081101561007d57600080fd5b81019080803573ffffffffffffffffffffffffffffffffffffffff1690602001909291905050506102c9565b6040518082815260200191505060405180910390f35b3480156100cb57600080fd5b506100d46102e1565b005b3480156100e257600080fd5b5061015a600480360360208110156100f957600080fd5b810190808035906020019064010000000081111561011657600080fd5b82018360208201111561012857600080fd5b8035906020019184600183028401116401000000008311171561014a57600080fd5b90919293919293905050506104fa565b005b34801561016857600080fd5b506101ab6004803603602081101561017f57600080fd5b81019080803573ffffffffffffffffffffffffffffffffffffffff169060200190929190505050610624565b6040518082815260200191505060405180910390f35b610262600480360360608110156101d757600080fd5b8101908080359060200190929190803573ffffffffffffffffffffffffffffffffffffffff1690602001909291908035906020019064010000000081111561021e57600080fd5b82018360208201111561023057600080fd5b8035906020019184600183028401116401000000008311171561025257600080fd5b909192939192939050505061063c565b005b34801561027057600080fd5b506102b36004803603602081101561028757600080fd5b81019080803573ffffffffffffffffffffffffffffffffffffffff169060200190929190505050610794565b6040518082815260200191505060405180910390f35b60016020528060005260406000206000915090505481565b60008060003373ffffffffffffffffffffffffffffffffffffffff1673ffffffffffffffffffffffffffffffffffffffff16815260200190815260200160002054141561032d576104f8565b600080600160003373ffffffffffffffffffffffffffffffffffffffff1673ffffffffffffffffffffffffffffffffffffffff1681526020019081526020016000205443111561042457600a4333604051602001808381526020018273ffffffffffffffffffffffffffffffffffffffff1660601b8152601401925050506040516020818303038152906040528051906020012060001c816103cb57fe5b069050600081141561042357600160003373ffffffffffffffffffffffffffffffffffffffff1673ffffffffffffffffffffffffffffffffffffffff1681526020019081526020016000205466038d7ea4c680000291505b5b6000826000803373ffffffffffffffffffffffffffffffffffffffff1673ffffffffffffffffffffffffffffffffffffffff1681526020019081526020016000205401905060008060003373ffffffffffffffffffffffffffffffffffffffff1673ffffffffffffffffffffffffffffffffffffffff168152602001908152602001600020819055503373ffffffffffffffffffffffffffffffffffffffff166108fc829081150290604051600060405180830381858888f193505050501580156104f3573d6000803e3d6000fd5b505050505b565b6000801b600260003373ffffffffffffffffffffffffffffffffffffffff1673ffffffffffffffffffffffffffffffffffffffff168152602001908152602001600020541461054857610620565b818160405160200180838380828437808301925050509250505060405160208183030381529060405280519060200120600260003373ffffffffffffffffffffffffffffffffffffffff1673ffffffffffffffffffffffffffffffffffffffff168152602001908152602001600020819055507fffffffffffffffffffffffffffffffffffffffffffffffffffffffffffffffff600160003373ffffffffffffffffffffffffffffffffffffffff1673ffffffffffffffffffffffffffffffffffffffff168152602001908152602001600020819055505b5050565b60026020528060005260406000206000915090505481565b6000801b600260003373ffffffffffffffffffffffffffffffffffffffff1673ffffffffffffffffffffffffffffffffffffffff16815260200190815260200160002054141561068b57600080fd5b818160405160200180838380828437808301925050509250505060405160208183030381529060405280519060200120600260008573ffffffffffffffffffffffffffffffffffffffff1673ffffffffffffffffffffffffffffffffffffffff168152602001908152602001600020541461070557600080fd5b834301600160008573ffffffffffffffffffffffffffffffffffffffff1673ffffffffffffffffffffffffffffffffffffffff16815260200190815260200160002081905550346000808573ffffffffffffffffffffffffffffffffffffffff1673ffffffffffffffffffffffffffffffffffffffff1681526020019081526020016000208190555050505050565b6000602052806000526040600020600091509050548156fea2646970667358221220a7b37226e6bf85e7e791e419096116b41e6952c6972830c0057695fdc762a18964736f6c63430007060033",
  "immutableReferences": {},
  "source": "pragma solidity ^0.7.6;\n\ncontract baby_bank {\n    mapping(address => uint256) public balance;\n    mapping(address => uint256) public withdraw_time;\n    mapping(address => bytes32) public user;\n\n    constructor() payable {}\n\n    function signup(string calldata _n) public {\n        if (user[msg.sender] != 0) {\n            return;\n        }\n        user[msg.sender] = keccak256(abi.encodePacked((_n)));\n        withdraw_time[msg.sender] = (2**256) - 1;\n    }\n\n    function deposit(\n        uint256 _t,\n        address _tg,\n        string calldata _n\n    ) public payable {\n        if (user[msg.sender] == 0) {\n            revert();\n        }\n\n        if (user[_tg] != keccak256(abi.encodePacked((_n)))) {\n            revert();\n        }\n\n        withdraw_time[_tg] = block.number + _t;\n        balance[_tg] = msg.value;\n    }\n\n    function withdraw() public {\n        if (balance[msg.sender] == 0) {\n            return;\n        }\n        uint256 gift = 0;\n        uint256 lucky = 0;\n\n        if (block.number > withdraw_time[msg.sender]) {\n            // VULN: bad randomness\n            lucky =\n                uint256(keccak256(abi.encodePacked(block.number, msg.sender))) %\n                10;\n            if (lucky == 0) {\n                gift = (10**15) * withdraw_time[msg.sender];\n            }\n        }\n        uint256 amount = balance[msg.sender] + gift;\n        balance[msg.sender] = 0;\n        msg.sender.transfer(amount);\n    }\n}\n",
  "sourcePath": "/tmp/_download_unzip_EEBIeI/baby_bank_truffle/contracts/baby_bank.sol",
  "compiler": {
    "name": "solc",
    "version": "0.7.6+commit.7338295f.Emscripten.clang"
  },
  "schemaVersion": "3.4.15",
  "updatedAt": "2023-09-05T22:17:15.094Z",
  "devdoc": {
    "kind": "dev",
    "methods": {},
    "version": 1
  },
  "userdoc": {
    "kind": "user",
    "methods": {},
    "version": 1
  }
}